{
  "abi": [
    {
      "inputs": [
        {
          "internalType": "uint256",
          "name": "_lockFromBlock",
          "type": "uint256"
        },
        {
          "internalType": "uint256",
          "name": "_lockToBlock",
          "type": "uint256"
        }
      ],
      "stateMutability": "nonpayable",
      "type": "constructor"
    },
    {
      "anonymous": false,
      "inputs": [
        {
          "indexed": true,
          "internalType": "address",
          "name": "owner",
          "type": "address"
        },
        {
          "indexed": true,
          "internalType": "address",
          "name": "spender",
          "type": "address"
        },
        {
          "indexed": false,
          "internalType": "uint256",
          "name": "value",
          "type": "uint256"
        }
      ],
      "name": "Approval",
      "type": "event"
    },
    {
      "anonymous": false,
      "inputs": [
        {
          "indexed": true,
          "internalType": "address",
          "name": "delegator",
          "type": "address"
        },
        {
          "indexed": true,
          "internalType": "address",
          "name": "fromDelegate",
          "type": "address"
        },
        {
          "indexed": true,
          "internalType": "address",
          "name": "toDelegate",
          "type": "address"
        }
      ],
      "name": "DelegateChanged",
      "type": "event"
    },
    {
      "anonymous": false,
      "inputs": [
        {
          "indexed": true,
          "internalType": "address",
          "name": "delegate",
          "type": "address"
        },
        {
          "indexed": false,
          "internalType": "uint256",
          "name": "previousBalance",
          "type": "uint256"
        },
        {
          "indexed": false,
          "internalType": "uint256",
          "name": "newBalance",
          "type": "uint256"
        }
      ],
      "name": "DelegateVotesChanged",
      "type": "event"
    },
    {
      "anonymous": false,
      "inputs": [
        {
          "indexed": true,
          "internalType": "address",
          "name": "to",
          "type": "address"
        },
        {
          "indexed": false,
          "internalType": "uint256",
          "name": "value",
          "type": "uint256"
        }
      ],
      "name": "Lock",
      "type": "event"
    },
    {
      "anonymous": false,
      "inputs": [
        {
          "indexed": true,
          "internalType": "address",
          "name": "previousOwner",
          "type": "address"
        },
        {
          "indexed": true,
          "internalType": "address",
          "name": "newOwner",
          "type": "address"
        }
      ],
      "name": "OwnershipTransferred",
      "type": "event"
    },
    {
      "anonymous": false,
      "inputs": [
        {
          "indexed": true,
          "internalType": "address",
          "name": "from",
          "type": "address"
        },
        {
          "indexed": true,
          "internalType": "address",
          "name": "to",
          "type": "address"
        },
        {
          "indexed": false,
          "internalType": "uint256",
          "name": "value",
          "type": "uint256"
        }
      ],
      "name": "Transfer",
      "type": "event"
    },
    {
      "inputs": [],
      "name": "DELEGATION_TYPEHASH",
      "outputs": [
        {
          "internalType": "bytes32",
          "name": "",
          "type": "bytes32"
        }
      ],
      "stateMutability": "view",
      "type": "function"
    },
    {
      "inputs": [],
      "name": "DOMAIN_TYPEHASH",
      "outputs": [
        {
          "internalType": "bytes32",
          "name": "",
          "type": "bytes32"
        }
      ],
      "stateMutability": "view",
      "type": "function"
    },
    {
      "inputs": [
        {
          "internalType": "address",
          "name": "_toAdd",
          "type": "address"
        }
      ],
      "name": "addAuthorized",
      "outputs": [],
      "stateMutability": "nonpayable",
      "type": "function"
    },
    {
      "inputs": [
        {
          "internalType": "address",
          "name": "owner",
          "type": "address"
        },
        {
          "internalType": "address",
          "name": "spender",
          "type": "address"
        }
      ],
      "name": "allowance",
      "outputs": [
        {
          "internalType": "uint256",
          "name": "",
          "type": "uint256"
        }
      ],
      "stateMutability": "view",
      "type": "function"
    },
    {
      "inputs": [
        {
          "internalType": "address",
          "name": "spender",
          "type": "address"
        },
        {
          "internalType": "uint256",
          "name": "amount",
          "type": "uint256"
        }
      ],
      "name": "approve",
      "outputs": [
        {
          "internalType": "bool",
          "name": "",
          "type": "bool"
        }
      ],
      "stateMutability": "nonpayable",
      "type": "function"
    },
    {
      "inputs": [
        {
          "internalType": "address",
          "name": "",
          "type": "address"
        }
      ],
      "name": "authorized",
      "outputs": [
        {
          "internalType": "bool",
          "name": "",
          "type": "bool"
        }
      ],
      "stateMutability": "view",
      "type": "function"
    },
    {
      "inputs": [
        {
          "internalType": "address",
          "name": "account",
          "type": "address"
        }
      ],
      "name": "balanceOf",
      "outputs": [
        {
          "internalType": "uint256",
          "name": "",
          "type": "uint256"
        }
      ],
      "stateMutability": "view",
      "type": "function"
    },
    {
      "inputs": [
        {
          "internalType": "address",
          "name": "_holder",
          "type": "address"
        }
      ],
      "name": "canUnlockAmount",
      "outputs": [
        {
          "internalType": "uint256",
          "name": "",
          "type": "uint256"
        }
      ],
      "stateMutability": "view",
      "type": "function"
    },
    {
      "inputs": [],
      "name": "cap",
      "outputs": [
        {
          "internalType": "uint256",
          "name": "",
          "type": "uint256"
        }
      ],
      "stateMutability": "view",
      "type": "function"
    },
    {
      "inputs": [
        {
          "internalType": "uint256",
          "name": "_newCap",
          "type": "uint256"
        }
      ],
      "name": "capUpdate",
      "outputs": [],
      "stateMutability": "nonpayable",
      "type": "function"
    },
    {
      "inputs": [
        {
          "internalType": "address",
          "name": "",
          "type": "address"
        },
        {
          "internalType": "uint32",
          "name": "",
          "type": "uint32"
        }
      ],
      "name": "checkpoints",
      "outputs": [
        {
          "internalType": "uint32",
          "name": "fromBlock",
          "type": "uint32"
        },
        {
          "internalType": "uint256",
          "name": "votes",
          "type": "uint256"
        }
      ],
      "stateMutability": "view",
      "type": "function"
    },
    {
      "inputs": [],
      "name": "circulatingSupply",
      "outputs": [
        {
          "internalType": "uint256",
          "name": "",
          "type": "uint256"
        }
      ],
      "stateMutability": "view",
      "type": "function"
    },
    {
      "inputs": [],
      "name": "decimals",
      "outputs": [
        {
          "internalType": "uint8",
          "name": "",
          "type": "uint8"
        }
      ],
      "stateMutability": "view",
      "type": "function"
    },
    {
      "inputs": [
        {
          "internalType": "address",
          "name": "spender",
          "type": "address"
        },
        {
          "internalType": "uint256",
          "name": "subtractedValue",
          "type": "uint256"
        }
      ],
      "name": "decreaseAllowance",
      "outputs": [
        {
          "internalType": "bool",
          "name": "",
          "type": "bool"
        }
      ],
      "stateMutability": "nonpayable",
      "type": "function"
    },
    {
      "inputs": [
        {
          "internalType": "address",
          "name": "delegatee",
          "type": "address"
        }
      ],
      "name": "delegate",
      "outputs": [],
      "stateMutability": "nonpayable",
      "type": "function"
    },
    {
      "inputs": [
        {
          "internalType": "address",
          "name": "delegatee",
          "type": "address"
        },
        {
          "internalType": "uint256",
          "name": "nonce",
          "type": "uint256"
        },
        {
          "internalType": "uint256",
          "name": "expiry",
          "type": "uint256"
        },
        {
          "internalType": "uint8",
          "name": "v",
          "type": "uint8"
        },
        {
          "internalType": "bytes32",
          "name": "r",
          "type": "bytes32"
        },
        {
          "internalType": "bytes32",
          "name": "s",
          "type": "bytes32"
        }
      ],
      "name": "delegateBySig",
      "outputs": [],
      "stateMutability": "nonpayable",
      "type": "function"
    },
    {
      "inputs": [
        {
          "internalType": "address",
          "name": "delegator",
          "type": "address"
        }
      ],
      "name": "delegates",
      "outputs": [
        {
          "internalType": "address",
          "name": "",
          "type": "address"
        }
      ],
      "stateMutability": "view",
      "type": "function"
    },
    {
      "inputs": [
        {
          "internalType": "address",
          "name": "account",
          "type": "address"
        }
      ],
      "name": "getCurrentVotes",
      "outputs": [
        {
          "internalType": "uint256",
          "name": "",
          "type": "uint256"
        }
      ],
      "stateMutability": "view",
      "type": "function"
    },
    {
      "inputs": [
        {
          "internalType": "address",
          "name": "account",
          "type": "address"
        },
        {
          "internalType": "uint256",
          "name": "blockNumber",
          "type": "uint256"
        }
      ],
      "name": "getPriorVotes",
      "outputs": [
        {
          "internalType": "uint256",
          "name": "",
          "type": "uint256"
        }
      ],
      "stateMutability": "view",
      "type": "function"
    },
    {
      "inputs": [
        {
          "internalType": "address",
          "name": "spender",
          "type": "address"
        },
        {
          "internalType": "uint256",
          "name": "addedValue",
          "type": "uint256"
        }
      ],
      "name": "increaseAllowance",
      "outputs": [
        {
          "internalType": "bool",
          "name": "",
          "type": "bool"
        }
      ],
      "stateMutability": "nonpayable",
      "type": "function"
    },
    {
      "inputs": [
        {
          "internalType": "address",
          "name": "_holder",
          "type": "address"
        }
      ],
      "name": "lastUnlockBlock",
      "outputs": [
        {
          "internalType": "uint256",
          "name": "",
          "type": "uint256"
        }
      ],
      "stateMutability": "view",
      "type": "function"
    },
    {
      "inputs": [
        {
          "internalType": "address",
          "name": "_holder",
          "type": "address"
        },
        {
          "internalType": "uint256",
          "name": "_amount",
          "type": "uint256"
        }
      ],
      "name": "lock",
      "outputs": [],
      "stateMutability": "nonpayable",
      "type": "function"
    },
    {
      "inputs": [],
      "name": "lockFromBlock",
      "outputs": [
        {
          "internalType": "uint256",
          "name": "",
          "type": "uint256"
        }
      ],
      "stateMutability": "view",
      "type": "function"
    },
    {
      "inputs": [
        {
          "internalType": "uint256",
          "name": "_newLockFrom",
          "type": "uint256"
        }
      ],
      "name": "lockFromUpdate",
      "outputs": [],
      "stateMutability": "nonpayable",
      "type": "function"
    },
    {
      "inputs": [
        {
          "internalType": "address",
          "name": "_holder",
          "type": "address"
        }
      ],
      "name": "lockOf",
      "outputs": [
        {
          "internalType": "uint256",
          "name": "",
          "type": "uint256"
        }
      ],
      "stateMutability": "view",
      "type": "function"
    },
    {
      "inputs": [],
      "name": "lockToBlock",
      "outputs": [
        {
          "internalType": "uint256",
          "name": "",
          "type": "uint256"
        }
      ],
      "stateMutability": "view",
      "type": "function"
    },
    {
      "inputs": [
        {
          "internalType": "uint256",
          "name": "_newLockTo",
          "type": "uint256"
        }
      ],
      "name": "lockToUpdate",
      "outputs": [],
      "stateMutability": "nonpayable",
      "type": "function"
    },
    {
      "inputs": [],
      "name": "lockedSupply",
      "outputs": [
        {
          "internalType": "uint256",
          "name": "",
          "type": "uint256"
        }
      ],
      "stateMutability": "view",
      "type": "function"
    },
    {
      "inputs": [
        {
          "internalType": "address",
          "name": "_to",
          "type": "address"
        },
        {
          "internalType": "uint256",
          "name": "_amount",
          "type": "uint256"
        }
      ],
      "name": "manualMint",
      "outputs": [],
      "stateMutability": "nonpayable",
      "type": "function"
    },
    {
      "inputs": [],
      "name": "manualMintLimit",
      "outputs": [
        {
          "internalType": "uint256",
          "name": "",
          "type": "uint256"
        }
      ],
      "stateMutability": "view",
      "type": "function"
    },
    {
      "inputs": [],
      "name": "manualMinted",
      "outputs": [
        {
          "internalType": "uint256",
          "name": "",
          "type": "uint256"
        }
      ],
      "stateMutability": "view",
      "type": "function"
    },
    {
      "inputs": [
        {
          "internalType": "address",
          "name": "_to",
          "type": "address"
        },
        {
          "internalType": "uint256",
          "name": "_amount",
          "type": "uint256"
        }
      ],
      "name": "mint",
      "outputs": [],
      "stateMutability": "nonpayable",
      "type": "function"
    },
    {
      "inputs": [],
      "name": "name",
      "outputs": [
        {
          "internalType": "string",
          "name": "",
          "type": "string"
        }
      ],
      "stateMutability": "view",
      "type": "function"
    },
    {
      "inputs": [
        {
          "internalType": "address",
          "name": "",
          "type": "address"
        }
      ],
      "name": "nonces",
      "outputs": [
        {
          "internalType": "uint256",
          "name": "",
          "type": "uint256"
        }
      ],
      "stateMutability": "view",
      "type": "function"
    },
    {
      "inputs": [
        {
          "internalType": "address",
          "name": "",
          "type": "address"
        }
      ],
      "name": "numCheckpoints",
      "outputs": [
        {
          "internalType": "uint32",
          "name": "",
          "type": "uint32"
        }
      ],
      "stateMutability": "view",
      "type": "function"
    },
    {
      "inputs": [],
      "name": "owner",
      "outputs": [
        {
          "internalType": "address",
          "name": "",
          "type": "address"
        }
      ],
      "stateMutability": "view",
      "type": "function"
    },
    {
      "inputs": [],
      "name": "previousOwner",
      "outputs": [
        {
          "internalType": "address",
          "name": "",
          "type": "address"
        }
      ],
      "stateMutability": "view",
      "type": "function"
    },
    {
      "inputs": [
        {
          "internalType": "address",
          "name": "newOwner",
          "type": "address"
        }
      ],
      "name": "reclaimOwnership",
      "outputs": [],
      "stateMutability": "nonpayable",
      "type": "function"
    },
    {
      "inputs": [
        {
          "internalType": "address",
          "name": "_toRemove",
          "type": "address"
        }
      ],
      "name": "removeAuthorized",
      "outputs": [],
      "stateMutability": "nonpayable",
      "type": "function"
    },
    {
      "inputs": [],
      "name": "renounceOwnership",
      "outputs": [],
      "stateMutability": "nonpayable",
      "type": "function"
    },
    {
      "inputs": [],
      "name": "symbol",
      "outputs": [
        {
          "internalType": "string",
          "name": "",
          "type": "string"
        }
      ],
      "stateMutability": "view",
      "type": "function"
    },
    {
      "inputs": [
        {
          "internalType": "address",
          "name": "_holder",
          "type": "address"
        }
      ],
      "name": "totalBalanceOf",
      "outputs": [
        {
          "internalType": "uint256",
          "name": "",
          "type": "uint256"
        }
      ],
      "stateMutability": "view",
      "type": "function"
    },
    {
      "inputs": [],
      "name": "totalLock",
      "outputs": [
        {
          "internalType": "uint256",
          "name": "",
          "type": "uint256"
        }
      ],
      "stateMutability": "view",
      "type": "function"
    },
    {
      "inputs": [],
      "name": "totalSupply",
      "outputs": [
        {
          "internalType": "uint256",
          "name": "",
          "type": "uint256"
        }
      ],
      "stateMutability": "view",
      "type": "function"
    },
    {
      "inputs": [
        {
          "internalType": "address",
          "name": "recipient",
          "type": "address"
        },
        {
          "internalType": "uint256",
          "name": "amount",
          "type": "uint256"
        }
      ],
      "name": "transfer",
      "outputs": [
        {
          "internalType": "bool",
          "name": "",
          "type": "bool"
        }
      ],
      "stateMutability": "nonpayable",
      "type": "function"
    },
    {
      "inputs": [
        {
          "internalType": "address",
          "name": "_to",
          "type": "address"
        }
      ],
      "name": "transferAll",
      "outputs": [],
      "stateMutability": "nonpayable",
      "type": "function"
    },
    {
      "inputs": [
        {
          "internalType": "address",
          "name": "sender",
          "type": "address"
        },
        {
          "internalType": "address",
          "name": "recipient",
          "type": "address"
        },
        {
          "internalType": "uint256",
          "name": "amount",
          "type": "uint256"
        }
      ],
      "name": "transferFrom",
      "outputs": [
        {
          "internalType": "bool",
          "name": "",
          "type": "bool"
        }
      ],
      "stateMutability": "nonpayable",
      "type": "function"
    },
    {
      "inputs": [
        {
          "internalType": "address",
          "name": "newOwner",
          "type": "address"
        }
      ],
      "name": "transferOwnership",
      "outputs": [],
      "stateMutability": "nonpayable",
      "type": "function"
    },
    {
      "inputs": [],
      "name": "unlock",
      "outputs": [],
      "stateMutability": "nonpayable",
      "type": "function"
    },
    {
      "inputs": [],
      "name": "unlockedSupply",
      "outputs": [
        {
          "internalType": "uint256",
          "name": "",
          "type": "uint256"
        }
      ],
      "stateMutability": "view",
      "type": "function"
    }
  ],
  "bytecode": {
    "object": "0x60806040526c0c9f2c9cd04674edea4000000060085569d3c21bcecceda1000000600c556000600d553480156200003557600080fd5b5060405162002afb38038062002afb833981810160405260408110156200005b57600080fd5b50805160209182015160408051808201825260088152672130b7aa37b5b2b760c11b818601908152825180840190935260038084526242414f60e81b968401969096528151949593949193620000b4929091906200014f565b508051620000ca9060049060208401906200014f565b50506005805460ff19166012179055506000620000e66200014b565b60058054610100600160a81b0319166101006001600160a01b03841690810291909117909155604051919250906000907f8be0079c531659141344cd1fd0a4f28419497f9722a3daafe3b4186f6b6457e0908290a350600a91909155600b55620001eb565b3390565b828054600181600116156101000203166002900490600052602060002090601f016020900481019282601f106200019257805160ff1916838001178555620001c2565b82800160010185558215620001c2579182015b82811115620001c2578251825591602001919060010190620001a5565b50620001d0929150620001d4565b5090565b5b80821115620001d05760008155600101620001d5565b61290080620001fb6000396000f3fe608060405234801561001057600080fd5b50600436106102d65760003560e01c80637ecebe0011610182578063b9181611116100e9578063e4c5ff46116100a2578063f1127ed81161007c578063f1127ed8146108e7578063f2fde38b14610939578063f85b84a41461095f578063fd3d27b814610967576102d6565b8063e4c5ff46146108ab578063e6b2fb4a146108d7578063e7a324dc146108df576102d6565b8063b9181611146107c5578063c38533c6146107eb578063c3cda52014610808578063ca5c7b911461084f578063cf1c316a14610857578063dd62ed3e1461087d576102d6565b8063a3a7e7f31161013b578063a3a7e7f3146106f3578063a457c2d714610719578063a69df4b514610745578063a9059cbb1461074d578063a90fa60314610779578063b4b5ea571461079f576102d6565b80637ecebe001461068757806389a2867c146106ad5780638da5cb5b146106d35780638e875e1a146106db5780639358928b146106e357806395d89b41146106eb576102d6565b806340346c49116102415780635c19a95c116101fa5780636fcfff45116101d45780636fcfff45146105ee57806370a082311461062d578063715018a614610653578063782d6fe11461065b576102d6565b80635c19a95c146105b857806366fc237b146105de578063674f220f146105e6576102d6565b806340346c49146104bb57806340c10f19146104d8578063485d7d94146105045780634b0ee02a1461052a578063587cde1e146105505780635a46d3b514610592576102d6565b806323b872dd1161029357806323b872dd146103ff578063282d3fdf14610435578063313ce56714610461578063355274ea1461047f57806339509351146104875780633a1aae35146104b3576102d6565b806306fdde03146102db578063095ea7b3146103585780630cb285e21461039857806318160ddd146103b7578063202b1760146103d157806320606b70146103f7575b600080fd5b6102e361096f565b6040805160208082528351818301528351919283929083019185019080838360005b8381101561031d578181015183820152602001610305565b50505050905090810190601f16801561034a5780820380516001836020036101000a031916815260200191505b509250505060405180910390f35b6103846004803603604081101561036e57600080fd5b506001600160a01b038135169060200135610a05565b604080519115158252519081900360200190f35b6103b5600480360360208110156103ae57600080fd5b5035610a23565b005b6103bf610a5e565b60408051918252519081900360200190f35b6103bf600480360360208110156103e757600080fd5b50356001600160a01b0316610a64565b6103bf610b2a565b6103846004803603606081101561041557600080fd5b506001600160a01b03813581169160208101359091169060400135610b4e565b6103b56004803603604081101561044b57600080fd5b506001600160a01b038135169060200135610bd5565b610469610dc3565b6040805160ff9092168252519081900360200190f35b6103bf610dcc565b6103846004803603604081101561049d57600080fd5b506001600160a01b038135169060200135610dd2565b6103bf610e20565b6103b5600480360360208110156104d157600080fd5b5035610e26565b6103b5600480360360408110156104ee57600080fd5b506001600160a01b038135169060200135610e61565b6103b56004803603602081101561051a57600080fd5b50356001600160a01b0316610ef1565b6103bf6004803603602081101561054057600080fd5b50356001600160a01b0316610f85565b6105766004803603602081101561056657600080fd5b50356001600160a01b0316610fb2565b604080516001600160a01b039092168252519081900360200190f35b6103bf600480360360208110156105a857600080fd5b50356001600160a01b0316610fd0565b6103b5600480360360208110156105ce57600080fd5b50356001600160a01b0316610feb565b6103bf610ff8565b610576610ffe565b6106146004803603602081101561060457600080fd5b50356001600160a01b031661100d565b6040805163ffffffff9092168252519081900360200190f35b6103bf6004803603602081101561064357600080fd5b50356001600160a01b0316611025565b6103b5611040565b6103bf6004803603604081101561067157600080fd5b506001600160a01b0381351690602001356110ed565b6103bf6004803603602081101561069d57600080fd5b50356001600160a01b03166112f5565b6103bf600480360360208110156106c357600080fd5b50356001600160a01b0316611307565b610576611322565b6103bf611336565b6103bf61133c565b6102e361134b565b6103b56004803603602081101561070957600080fd5b50356001600160a01b03166113ac565b6103846004803603604081101561072f57600080fd5b506001600160a01b03813516906020013561149a565b6103b5611502565b6103846004803603604081101561076357600080fd5b506001600160a01b0381351690602001356115d9565b6103b56004803603602081101561078f57600080fd5b50356001600160a01b03166115ed565b6103bf600480360360208110156107b557600080fd5b50356001600160a01b03166116f4565b610384600480360360208110156107db57600080fd5b50356001600160a01b0316611758565b6103b56004803603602081101561080157600080fd5b503561176d565b6103b5600480360360c081101561081e57600080fd5b506001600160a01b038135169060208101359060408101359060ff6060820135169060808101359060a001356117a8565b6103bf611a1b565b6103b56004803603602081101561086d57600080fd5b50356001600160a01b0316611a25565b6103bf6004803603604081101561089357600080fd5b506001600160a01b0381358116916020013516611aa6565b6103b5600480360360408110156108c157600080fd5b506001600160a01b038135169060200135611ad1565b6103bf611b56565b6103bf611b5c565b610919600480360360408110156108fd57600080fd5b5080356001600160a01b0316906020013563ffffffff16611b80565b6040805163ffffffff909316835260208301919091528051918290030190f35b6103b56004803603602081101561094f57600080fd5b50356001600160a01b0316611bad565b6103bf611c4f565b6103bf611c55565b60038054604080516020601f60026000196101006001881615020190951694909404938401819004810282018101909252828152606093909290918301828280156109fb5780601f106109d0576101008083540402835291602001916109fb565b820191906000526020600020905b8154815290600101906020018083116109de57829003601f168201915b5050505050905090565b6000610a19610a12611c6b565b8484611c6f565b5060015b92915050565b3360009081526007602052604090205460ff1680610a50575033610a45611322565b6001600160a01b0316145b610a5957600080fd5b600b55565b60025490565b6000600a54431015610a7857506000610b25565b600b544310610aa057506001600160a01b0381166000908152600e6020526040902054610b25565b6001600160a01b0382166000908152600f6020526040812054610ac4904390611d5b565b6001600160a01b0384166000908152600f6020526040812054600b549293509091610aee91611d5b565b6001600160a01b0385166000908152600e6020526040902054909150610b20908290610b1a9085611d9d565b90611df6565b925050505b919050565b7f8cad95687ba82c2ce50e74f7b754645e5117c3a5bec8151c0726d5857980a86681565b6000610b5b848484611e38565b610bcb84610b67611c6b565b610bc6856040518060600160405280602881526020016127a1602891396001600160a01b038a16600090815260016020526040812090610ba5611c6b565b6001600160a01b031681526020810191909152604001600020549190611e7a565b611c6f565b5060019392505050565b610bdd611c6b565b60055461010090046001600160a01b03908116911614610c32576040805162461bcd60e51b815260206004820181905260248201526000805160206127c9833981519152604482015290519081900360640190fd5b6001600160a01b038216610c8d576040805162461bcd60e51b815260206004820152601f60248201527f45524332303a206c6f636b20746f20746865207a65726f206164647265737300604482015290519081900360640190fd5b610c9682611025565b811115610cea576040805162461bcd60e51b815260206004820152601e60248201527f45524332303a206c6f636b20616d6f756e74206f76657220626c616e63650000604482015290519081900360640190fd5b610cf5823083611e38565b6001600160a01b0382166000908152600e6020526040902054610d189082611f11565b6001600160a01b0383166000908152600e6020526040902055600954610d3e9082611f11565b600955600a546001600160a01b0383166000908152600f60205260409020541015610d8057600a546001600160a01b0383166000908152600f60205260409020555b6040805182815290516001600160a01b038416917f625fed9875dada8643f2418b838ae0bc78d9a148a18eee4ee1979ff0f3f5d427919081900360200190a25050565b60055460ff1690565b60085490565b6000610a19610ddf611c6b565b84610bc68560016000610df0611c6b565b6001600160a01b03908116825260208083019390935260409182016000908120918c168152925290205490611f11565b60095490565b3360009081526007602052604090205460ff1680610e53575033610e48611322565b6001600160a01b0316145b610e5c57600080fd5b600855565b610e69611c6b565b60055461010090046001600160a01b03908116911614610ebe576040805162461bcd60e51b815260206004820181905260248201526000805160206127c9833981519152604482015290519081900360640190fd5b610ec88282611f6b565b6001600160a01b03808316600090815260106020526040812054610eed92168361205b565b5050565b610ef9611c6b565b60055461010090046001600160a01b03908116911614610f4e576040805162461bcd60e51b815260206004820181905260248201526000805160206127c9833981519152604482015290519081900360640190fd5b6001600160a01b038116331415610f6457600080fd5b6001600160a01b03166000908152600760205260409020805460ff19169055565b6000610a1d610f9383611025565b6001600160a01b0384166000908152600e602052604090205490611f11565b6001600160a01b039081166000908152601060205260409020541690565b6001600160a01b03166000908152600e602052604090205490565b610ff53382612198565b50565b600a5481565b6006546001600160a01b031690565b60126020526000908152604090205463ffffffff1681565b6001600160a01b031660009081526020819052604090205490565b611048611c6b565b60055461010090046001600160a01b0390811691161461109d576040805162461bcd60e51b815260206004820181905260248201526000805160206127c9833981519152604482015290519081900360640190fd5b60055460405160009161010090046001600160a01b0316907f8be0079c531659141344cd1fd0a4f28419497f9722a3daafe3b4186f6b6457e0908390a360058054610100600160a81b0319169055565b600043821061112d5760405162461bcd60e51b81526004018080602001828103825260268152602001806128a56026913960400191505060405180910390fd5b6001600160a01b03831660009081526012602052604090205463ffffffff168061115b576000915050610a1d565b6001600160a01b038416600090815260116020908152604080832063ffffffff6000198601811685529252909120541683106111ca576001600160a01b03841660009081526011602090815260408083206000199490940163ffffffff16835292905220600101549050610a1d565b6001600160a01b038416600090815260116020908152604080832083805290915290205463ffffffff16831015611205576000915050610a1d565b600060001982015b8163ffffffff168163ffffffff1611156112be57600282820363ffffffff16048103611237612635565b506001600160a01b038716600090815260116020908152604080832063ffffffff80861685529083529281902081518083019092528054909316808252600190930154918101919091529087141561129957602001519450610a1d9350505050565b805163ffffffff168711156112b0578193506112b7565b6001820392505b505061120d565b506001600160a01b038516600090815260116020908152604080832063ffffffff9094168352929052206001015491505092915050565b60136020526000908152604090205481565b6001600160a01b03166000908152600f602052604090205490565b60055461010090046001600160a01b031690565b600b5481565b6000611346610a5e565b905090565b60048054604080516020601f60026000196101006001881615020190951694909404938401819004810282018101909252828152606093909290918301828280156109fb5780601f106109d0576101008083540402835291602001916109fb565b336000908152600e6020526040808220546001600160a01b03841683529120546113d591611f11565b6001600160a01b0382166000908152600e6020908152604080832093909355600a54600f90915291902054101561142357600a546001600160a01b0382166000908152600f60205260409020555b336000908152600f6020526040808220546001600160a01b0384168352912054101561146a57336000908152600f6020526040808220546001600160a01b03841683529120555b336000818152600e60209081526040808320839055600f909152812055610ff5908261149582611025565b611e38565b6000610a196114a7611c6b565b84610bc68560405180606001604052806025815260200161288060259139600160006114d1611c6b565b6001600160a01b03908116825260208083019390935260409182016000908120918d16815292529020549190611e7a565b336000908152600e602052604090205461155a576040805162461bcd60e51b815260206004820152601460248201527345524332303a2063616e6e6f7420756e6c6f636b60601b604482015290519081900360640190fd5b600061156533610a64565b905061157030611025565b8111156115835761158030611025565b90505b61158e303383611e38565b336000908152600e60205260409020546115a89082611d5b565b336000908152600e6020908152604080832093909355600f9052204390556009546115d39082611d5b565b60095550565b6000610a196115e6611c6b565b8484611e38565b6115f5611c6b565b6006546001600160a01b039081169116146116415760405162461bcd60e51b81526004018080602001828103825260298152602001806127e96029913960400191505060405180910390fd5b6006546001600160a01b0382811691161461168d5760405162461bcd60e51b81526004018080602001828103825260298152602001806127576029913960400191505060405180910390fd5b6005546040516001600160a01b0380841692610100900416907f8be0079c531659141344cd1fd0a4f28419497f9722a3daafe3b4186f6b6457e090600090a3600580546001600160a01b0390921661010002610100600160a81b0319909216919091179055565b6001600160a01b03811660009081526012602052604081205463ffffffff168061171f576000611751565b6001600160a01b038316600090815260116020908152604080832063ffffffff60001986011684529091529020600101545b9392505050565b60076020526000908152604090205460ff1681565b3360009081526007602052604090205460ff168061179a57503361178f611322565b6001600160a01b0316145b6117a357600080fd5b600a55565b60007f8cad95687ba82c2ce50e74f7b754645e5117c3a5bec8151c0726d5857980a8666117d361096f565b805190602001206117e261222d565b60408051602080820195909552808201939093526060830191909152306080808401919091528151808403909101815260a0830182528051908401207fe48329057bfd03d55e49b547132e39cffd9c1820ad7b9d4c5307691425d15adf60c08401526001600160a01b038b1660e084015261010083018a90526101208084018a9052825180850390910181526101408401835280519085012061190160f01b6101608501526101628401829052610182808501829052835180860390910181526101a285018085528151918701919091206000918290526101c2860180865281905260ff8b166101e287015261020286018a90526102228601899052935192965090949293909260019261024280840193601f198301929081900390910190855afa158015611915573d6000803e3d6000fd5b5050604051601f1901519150506001600160a01b0381166119675760405162461bcd60e51b81526004018080602001828103825260258152602001806128376025913960400191505060405180910390fd5b6001600160a01b038116600090815260136020526040902080546001810190915589146119c55760405162461bcd60e51b81526004018080602001828103825260218152602001806126706021913960400191505060405180910390fd5b87421115611a045760405162461bcd60e51b81526004018080602001828103825260258152602001806126916025913960400191505060405180910390fd5b611a0e818b612198565b505050505b505050505050565b6000611346610e20565b611a2d611c6b565b60055461010090046001600160a01b03908116911614611a82576040805162461bcd60e51b815260206004820181905260248201526000805160206127c9833981519152604482015290519081900360640190fd5b6001600160a01b03166000908152600760205260409020805460ff19166001179055565b6001600160a01b03918216600090815260016020908152604080832093909416825291909152205490565b3360009081526007602052604090205460ff1680611afe575033611af3611322565b6001600160a01b0316145b611b0757600080fd5b600c54600d541015610eed57611b1d8282611f6b565b6001600160a01b03808316600090815260106020526040812054611b4292168361205b565b600d54611b4f9082611f11565b600d555050565b600d5481565b7fe48329057bfd03d55e49b547132e39cffd9c1820ad7b9d4c5307691425d15adf81565b60116020908152600092835260408084209091529082529020805460019091015463ffffffff9091169082565b611bb5611c6b565b60055461010090046001600160a01b03908116911614611c0a576040805162461bcd60e51b815260206004820181905260248201526000805160206127c9833981519152604482015290519081900360640190fd5b6001600160a01b03811661168d5760405162461bcd60e51b81526004018080602001828103825260268152602001806126b66026913960400191505060405180910390fd5b600c5481565b6000611346600954611c65610a5e565b90611d5b565b3390565b6001600160a01b038316611cb45760405162461bcd60e51b815260040180806020018281038252602481526020018061285c6024913960400191505060405180910390fd5b6001600160a01b038216611cf95760405162461bcd60e51b81526004018080602001828103825260228152602001806126dc6022913960400191505060405180910390fd5b6001600160a01b03808416600081815260016020908152604080832094871680845294825291829020859055815185815291517f8c5be1e5ebec7d5bd14f71427d1e84f3dd0314c0f7b2291e5b200ac8c7c3b9259281900390910190a3505050565b600061175183836040518060400160405280601e81526020017f536166654d6174683a207375627472616374696f6e206f766572666c6f770000815250611e7a565b600082611dac57506000610a1d565b82820282848281611db957fe5b04146117515760405162461bcd60e51b81526004018080602001828103825260218152602001806127806021913960400191505060405180910390fd5b600061175183836040518060400160405280601a81526020017f536166654d6174683a206469766973696f6e206279207a65726f000000000000815250612231565b611e43838383612296565b6001600160a01b03808416600090815260106020526040808220548584168352912054611e759291821691168361205b565b505050565b60008184841115611f095760405162461bcd60e51b81526004018080602001828103825283818151815260200191508051906020019080838360005b83811015611ece578181015183820152602001611eb6565b50505050905090810190601f168015611efb5780820380516001836020036101000a031916815260200191505b509250505060405180910390fd5b505050900390565b600082820183811015611751576040805162461bcd60e51b815260206004820152601b60248201527f536166654d6174683a206164646974696f6e206f766572666c6f770000000000604482015290519081900360640190fd5b6001600160a01b038216611fc6576040805162461bcd60e51b815260206004820152601f60248201527f45524332303a206d696e7420746f20746865207a65726f206164647265737300604482015290519081900360640190fd5b611fd2600083836123f1565b600254611fdf9082611f11565b6002556001600160a01b0382166000908152602081905260409020546120059082611f11565b6001600160a01b0383166000818152602081815260408083209490945583518581529351929391927fddf252ad1be2c89b69c2b068fc378daa952ba7f163c4a11628f55a4df523b3ef9281900390910190a35050565b816001600160a01b0316836001600160a01b03161415801561207d5750600081115b15611e75576001600160a01b0383161561210f576001600160a01b03831660009081526012602052604081205463ffffffff1690816120bd5760006120ef565b6001600160a01b038516600090815260116020908152604080832063ffffffff60001987011684529091529020600101545b905060006120fd8285611d5b565b905061210b86848484612472565b5050505b6001600160a01b03821615611e75576001600160a01b03821660009081526012602052604081205463ffffffff16908161214a57600061217c565b6001600160a01b038416600090815260116020908152604080832063ffffffff60001987011684529091529020600101545b9050600061218a8285611f11565b9050611a1385848484612472565b6001600160a01b03808316600090815260106020526040812054909116906121bf84611025565b6001600160a01b0385811660008181526010602052604080822080546001600160a01b031916898616908117909155905194955093928616927f3134e8a2e6d97e929a7e54011ea5485d7d196dd5f0ba4d4ef95803e8e3fc257f9190a461222782848361205b565b50505050565b4690565b600081836122805760405162461bcd60e51b8152602060048201818152835160248401528351909283926044909101919085019080838360008315611ece578181015183820152602001611eb6565b50600083858161228c57fe5b0495945050505050565b6001600160a01b0383166122db5760405162461bcd60e51b81526004018080602001828103825260258152602001806128126025913960400191505060405180910390fd5b6001600160a01b0382166123205760405162461bcd60e51b815260040180806020018281038252602381526020018061264d6023913960400191505060405180910390fd5b61232b8383836123f1565b61236881604051806060016040528060268152602001612731602691396001600160a01b0386166000908152602081905260409020549190611e7a565b6001600160a01b0380851660009081526020819052604080822093909355908416815220546123979082611f11565b6001600160a01b038084166000818152602081815260409182902094909455805185815290519193928716927fddf252ad1be2c89b69c2b068fc378daa952ba7f163c4a11628f55a4df523b3ef92918290030190a3505050565b6123fc838383611e75565b6001600160a01b038316611e755760085461241f82612419610a5e565b90611f11565b1115611e75576040805162461bcd60e51b815260206004820152601960248201527f45524332304361707065643a2063617020657863656564656400000000000000604482015290519081900360640190fd5b6000612496436040518060600160405280603381526020016126fe603391396125d7565b905060008463ffffffff161180156124df57506001600160a01b038516600090815260116020908152604080832063ffffffff6000198901811685529252909120548282169116145b1561251c576001600160a01b038516600090815260116020908152604080832063ffffffff6000198901168452909152902060010182905561258d565b60408051808201825263ffffffff808416825260208083018681526001600160a01b038a166000818152601184528681208b8616825284528681209551865490861663ffffffff19918216178755925160019687015590815260129092529390208054928801909116919092161790555b604080518481526020810184905281516001600160a01b038816927fdec2bacdd2f05b59de34da9b523dff8be42e5e38e818c82fdb0bae774387a724928290030190a25050505050565b600081640100000000841061262d5760405162461bcd60e51b8152602060048201818152835160248401528351909283926044909101919085019080838360008315611ece578181015183820152602001611eb6565b509192915050565b60408051808201909152600080825260208201529056fe45524332303a207472616e7366657220746f20746865207a65726f206164647265737342414f3a3a64656c656761746542795369673a20696e76616c6964206e6f6e636542414f3a3a64656c656761746542795369673a207369676e617475726520657870697265644f776e61626c653a206e6577206f776e657220697320746865207a65726f206164647265737345524332303a20617070726f766520746f20746865207a65726f206164647265737342414f3a3a5f7772697465436865636b706f696e743a20626c6f636b206e756d6265722065786365656473203332206269747345524332303a207472616e7366657220616d6f756e7420657863656564732062616c616e63654f776e61626c653a206e6577206f776e6572206d7573742062652070726576696f7573206f776e6572536166654d6174683a206d756c7469706c69636174696f6e206f766572666c6f7745524332303a207472616e7366657220616d6f756e74206578636565647320616c6c6f77616e63654f776e61626c653a2063616c6c6572206973206e6f7420746865206f776e65724f776e61626c653a2063616c6c6572206973206e6f74207468652070726576696f7573206f776e657245524332303a207472616e736665722066726f6d20746865207a65726f206164647265737342414f3a3a64656c656761746542795369673a20696e76616c6964207369676e617475726545524332303a20617070726f76652066726f6d20746865207a65726f206164647265737345524332303a2064656372656173656420616c6c6f77616e63652062656c6f77207a65726f42414f3a3a6765745072696f72566f7465733a206e6f74207965742064657465726d696e6564a2646970667358221220a9edd6e27007f3287193892104ab4ed344da1fc6def222972b8b5ec873ddb80b64736f6c634300060c0033",
    "linkReferences": {}
  }
}