{
  "abi": [
    {
      "anonymous": false,
      "inputs": [
        {
          "indexed": true,
          "internalType": "address",
          "name": "previousOwner",
          "type": "address"
        },
        {
          "indexed": true,
          "internalType": "address",
          "name": "newOwner",
          "type": "address"
        }
      ],
      "name": "OwnershipTransferred",
      "type": "event"
    },
    {
      "inputs": [
        {
          "internalType": "address",
          "name": "_toAdd",
          "type": "address"
        }
      ],
      "name": "addAuthorized",
      "outputs": [],
      "stateMutability": "nonpayable",
      "type": "function"
    },
    {
      "inputs": [
        {
          "internalType": "address",
          "name": "",
          "type": "address"
        }
      ],
      "name": "authorized",
      "outputs": [
        {
          "internalType": "bool",
          "name": "",
          "type": "bool"
        }
      ],
      "stateMutability": "view",
      "type": "function"
    },
    {
      "inputs": [],
      "name": "owner",
      "outputs": [
        {
          "internalType": "address",
          "name": "",
          "type": "address"
        }
      ],
      "stateMutability": "view",
      "type": "function"
    },
    {
      "inputs": [],
      "name": "previousOwner",
      "outputs": [
        {
          "internalType": "address",
          "name": "",
          "type": "address"
        }
      ],
      "stateMutability": "view",
      "type": "function"
    },
    {
      "inputs": [
        {
          "internalType": "address",
          "name": "newOwner",
          "type": "address"
        }
      ],
      "name": "reclaimOwnership",
      "outputs": [],
      "stateMutability": "nonpayable",
      "type": "function"
    },
    {
      "inputs": [
        {
          "internalType": "address",
          "name": "_toRemove",
          "type": "address"
        }
      ],
      "name": "removeAuthorized",
      "outputs": [],
      "stateMutability": "nonpayable",
      "type": "function"
    },
    {
      "inputs": [],
      "name": "renounceOwnership",
      "outputs": [],
      "stateMutability": "nonpayable",
      "type": "function"
    },
    {
      "inputs": [
        {
          "internalType": "address",
          "name": "newOwner",
          "type": "address"
        }
      ],
      "name": "transferOwnership",
      "outputs": [],
      "stateMutability": "nonpayable",
      "type": "function"
    }
  ],
  "bytecode": {
    "object": "0x608060405234801561001057600080fd5b50600061001b61006a565b600080546001600160a01b0319166001600160a01b0383169081178255604051929350917f8be0079c531659141344cd1fd0a4f28419497f9722a3daafe3b4186f6b6457e0908290a35061006e565b3390565b6105df8061007d6000396000f3fe608060405234801561001057600080fd5b50600436106100885760003560e01c8063a90fa6031161005b578063a90fa603146100e9578063b91816111461010f578063cf1c316a14610149578063f2fde38b1461016f57610088565b8063485d7d941461008d578063674f220f146100b5578063715018a6146100d95780638da5cb5b146100e1575b600080fd5b6100b3600480360360208110156100a357600080fd5b50356001600160a01b0316610195565b005b6100bd610224565b604080516001600160a01b039092168252519081900360200190f35b6100b3610233565b6100bd6102d5565b6100b3600480360360208110156100ff57600080fd5b50356001600160a01b03166102e4565b6101356004803603602081101561012557600080fd5b50356001600160a01b03166103df565b604080519115158252519081900360200190f35b6100b36004803603602081101561015f57600080fd5b50356001600160a01b03166103f4565b6100b36004803603602081101561018557600080fd5b50356001600160a01b0316610470565b61019d61050d565b6000546001600160a01b039081169116146101ed576040805162461bcd60e51b81526020600482018190526024820152600080516020610561833981519152604482015290519081900360640190fd5b6001600160a01b03811633141561020357600080fd5b6001600160a01b03166000908152600260205260409020805460ff19169055565b6001546001600160a01b031690565b61023b61050d565b6000546001600160a01b0390811691161461028b576040805162461bcd60e51b81526020600482018190526024820152600080516020610561833981519152604482015290519081900360640190fd5b600080546040516001600160a01b03909116907f8be0079c531659141344cd1fd0a4f28419497f9722a3daafe3b4186f6b6457e0908390a3600080546001600160a01b0319169055565b6000546001600160a01b031690565b6102ec61050d565b6001546001600160a01b039081169116146103385760405162461bcd60e51b81526004018080602001828103825260298152602001806105816029913960400191505060405180910390fd5b6001546001600160a01b038281169116146103845760405162461bcd60e51b81526004018080602001828103825260298152602001806105386029913960400191505060405180910390fd5b600080546040516001600160a01b03808516939216917f8be0079c531659141344cd1fd0a4f28419497f9722a3daafe3b4186f6b6457e091a3600080546001600160a01b0319166001600160a01b0392909216919091179055565b60026020526000908152604090205460ff1681565b6103fc61050d565b6000546001600160a01b0390811691161461044c576040805162461bcd60e51b81526020600482018190526024820152600080516020610561833981519152604482015290519081900360640190fd5b6001600160a01b03166000908152600260205260409020805460ff19166001179055565b61047861050d565b6000546001600160a01b039081169116146104c8576040805162461bcd60e51b81526020600482018190526024820152600080516020610561833981519152604482015290519081900360640190fd5b6001600160a01b0381166103845760405162461bcd60e51b81526004018080602001828103825260268152602001806105126026913960400191505060405180910390fd5b339056fe4f776e61626c653a206e6577206f776e657220697320746865207a65726f20616464726573734f776e61626c653a206e6577206f776e6572206d7573742062652070726576696f7573206f776e65724f776e61626c653a2063616c6c6572206973206e6f7420746865206f776e65724f776e61626c653a2063616c6c6572206973206e6f74207468652070726576696f7573206f776e6572a26469706673582212203ff5633140c349c7c06e22188e67b0f9ce213747d1134e662fb38b2145e928e364736f6c634300060c0033",
    "linkReferences": {}
  }
}